00170615HMAC                                                                    
110001234566170508LEVERANTÖRSBETALNINGAR                                        
14000888888556897456986              000000098000GENAST     LEKGFNUQPYJUBYH7XVNA
14000888888512356986799              000000021000GENAST     LEKGFNUQPYJUBYH7XVPA
29000123456600000002000000119000                                                
9917061505cd81829e26f44089fd91a9cfbc75db9099f94424d00e8b9c87d17e83f35d5a        
