00170502HMAC                                                                    
110001234566170501LEVERANTORSBETALNINGAR                                        
14000888888556897456986              000000098000170505     LEKGFNUQPYJUBYH7XVNA
14000888888512356986799              000000021000170503     LEKGFNUQPYJUBYH7XVPA
29000123456600000002000000119000                                                
99170502FF365893D899291C3BF505FB3175E880B59FC8037A38CD211BD59C6C0311FE46        
